:100000000C9462000C948A000C948A000C948A0070
:100010000C948A000C948A000C948A000C948A0038
:100020000C948A000C948A000C948A000C948A0028
:100030000C948A000C948A000C948A000C948A0018
:100040000C9460040C948A000C942E040C94080404
:100050000C948A000C948A000C948A000C948A00F8
:100060000C948A000C948A000000000024002700F1
:100070002A0000000000250028002B0000000000DE
:1000800023002600290004040404040404040202DA
:100090000202020203030303030301020408102007
:1000A0004080010204081020010204081020000012
:1000B0000008000201000003040700000000000027
:1000C0000000AA0411241FBECFEFD8E0DEBFCDBFD1
:1000D00011E0A0E0B1E0E8EAFDE002C005900D9279
:1000E000A635B107D9F722E0A6E5B1E001C01D921F
:1000F000A631B207E1F710E0C2E6D0E004C02197D4
:10010000FE010E94CC06C136D107C9F70E94F40453
:100110000C94D2060C940000AF92BF92CF92DF9263
:10012000EF92FF920F931F93CF93DF936C017B01AC
:100130008B01040F151FEB015E01AE18BF08C0173D
:10014000D10759F06991D601ED91FC910190F081B0
:10015000E02DC6010995892B79F7C501DF91CF9173
:100160001F910F91FF90EF90DF90CF90BF90AF90D5
:100170000895FC01538D448D252F30E0842F90E0AD
:10018000821B930B541710F0CF9608950197089592
:10019000FC01918D828D981761F0A28DAE0FBF2F5B
:1001A000B11D5D968C91928D9F5F9F73928F90E0B1
:1001B00008958FEF9FEF0895FC01918D828D981720
:1001C00031F0828DE80FF11D858D90E008958FEF5D
:1001D0009FEF0895FC01918D228D892F90E0805C26
:1001E0009F4F821B91098F739927089581E691E0B3
:1001F0000E94EA0021E0892B09F420E0822F089573
:1002000080E090E0892B29F00E94F60081110C9487
:1002100000000895FC01A48DA80FB92FB11DA35AA9
:10022000BF4F2C91848D90E001968F739927848F16
:10023000A689B7892C93A089B1898C918370806439
:100240008C93938D848D981306C00288F389E02DDA
:1002500080818F7D80830895EF92FF920F931F938B
:10026000CF93DF93EC0181E0888F9B8D8C8D981369
:100270001AC0E889F989808185FF15C09FB7F89475
:10028000EE89FF896083E889F989808183708064C1
:1002900080839FBF81E090E0DF91CF911F910F910C
:1002A000FF90EF900895F62E0B8D10E00F5F1F4F1B
:1002B0000F731127E02E8C8D8E110CC00FB607FC2A
:1002C000FACFE889F989808185FFF5CFCE010E94B8
:1002D0000A01F1CFEB8DEC0FFD2FF11DE35AFF4F1B
:1002E000F0829FB7F8940B8FEA89FB898081806246
:1002F000CFCFCF93DF93EC01888D8823B9F0AA8903
:10030000BB89E889F9898C9185FD03C0808186FDD0
:100310000DC00FB607FCF7CF8C9185FFF2CF80811F
:1003200085FFEDCFCE010E940A01E9CFDF91CF9189
:100330000895833081F028F4813099F08230A9F05B
:1003400008958730A9F08830C9F08430B1F48091E5
:1003500080008F7D03C0809180008F778093800024
:10036000089584B58F7784BD089584B58F7DFBCFC4
:100370008091B0008F778093B00008958091B00095
:100380008F7DF9CFCF93DF93282F30E0F901E2552D
:10039000FF4F8491F901E656FF4FD491F901EA57D6
:1003A000FF4FC491CC23A1F081110E949901EC2F41
:1003B000F0E0EE0FFF1FE458FF4FA591B491EC91D0
:1003C000ED2381E090E009F480E0DF91CF91089582
:1003D00080E090E0FACF1F93CF93DF93282F30E097
:1003E000F901E255FF4F8491F901E656FF4FD49190
:1003F000F901EA57FF4FC491CC23A9F0162F8111C0
:100400000E949901EC2FF0E0EE0FFF1FEE58FF4F16
:10041000A591B4918FB7F894EC91111108C0D095C3
:10042000DE23DC938FBFDF91CF911F910895DE2BE8
:10043000F8CFCF93DF9390E0FC01E656FF4F249175
:100440008A579F4FFC0184918823D1F090E0880F58
:10045000991FFC01E859FF4FA591B491FC01EE589A
:10046000FF4FC591D49161110EC09FB7F8948C9144
:10047000E22FE0958E238C932881E223E8839FBFAF
:10048000DF91CF9108958FB7F894EC91E22BEC9324
:100490008FBFF6CF3FB7F89480915B0190915C01DC
:1004A000A0915D01B0915E0126B5A89B05C02F3FCC
:1004B00019F00196A11DB11D3FBFBA2FA92F982F8A
:1004C0008827BC01CD01620F711D811D911D42E085
:1004D000660F771F881F991F4A95D1F708958F924D
:1004E0009F92AF92BF92CF92DF92EF92FF924B0119
:1004F0005C010E944A026B017C010E944A026C1955
:100500007D098E099F09683E734081059105A8F316
:1005100021E0821A9108A108B10888EEC80E83E094
:10052000D81EE11CF11C81149104A104B10429F727
:10053000FF90EF90DF90CF90BF90AF909F908F9003
:100540000895089590E080E00895FC010190002056
:10055000E9F73197AF01481B590BBC018EEF91E0D1
:100560000C948C00CF93DF93EC0160E08E810E94AD
:10057000EB0161E08E810E94EB0160E08E810E94C0
:10058000EB018BE891E00197F1F7DF91CF910895AE
:10059000CF92DF92EF92FF920F931F93CF93DF934F
:1005A0006C017C0187E0E80EF11CD0E0C0E0062F72
:1005B00010E0B8010C2E02C0759567950A94E2F719
:1005C0006170F70181917F010E94EB012196C43097
:1005D000D10579F7C601DF91CF911F910F91FF905F
:1005E000EF90DF90CF900C94B202CF92DF92EF9217
:1005F000FF920F931F93CF93DF93EC01F62E642F9E
:100600008C810E94EB018D818F3F19F060E00E9488
:10061000EB010F2D10E08F8584FF25C06E0187E070
:10062000C80ED11CF12CE12CB8010E2C02C075951E
:1006300067950A94E2F76170F60181916F010E945B
:10064000EB01FFEFEF1AFF0A88E0E816F10461F70B
:10065000CE01DF91CF911F910F91FF90EF90DF902E
:10066000CF900C94B202B80184E0759567958A9595
:10067000E1F7CE010E94C8026F2DCE01DF91CF912C
:100680001F910F91FF90EF90DF90CF900C94C802D4
:1006900040E0682F8EEF91E00C94F502CF93DF934A
:1006A000823029F490910D02986090930D0280930E
:1006B00011021092120280E48093130280E1809371
:1006C000140280E58093150261E0809102020E948D
:1006D0001902809103028F3F19F061E00E94190214
:1006E00061E0809104020E941902CEEFD1E09E01E8
:1006F0002E5F314080910D0284FD0BC084E090E0BC
:1007000021962817390744F461E08E810E9419026E
:10071000EECF88E090E0F4CF8BE39DE00197F1F716
:1007200060E0809102020E94EB0160E0809104028F
:100730000E94EB01809103028F3F19F060E00E945C
:10074000EB0180910D0284FD39C063E08EEF91E0F2
:100750000E94C802CBE4D6E4CE010197F1F763E032
:100760008EEF91E00E94C8022197F1F763E08EEFCF
:1007700091E00E94C80283E592E00197F1F762E000
:100780008EEF91E00E94C80280910D0280620E946B
:10079000480384E080930E028CE00E94480381E0CD
:1007A0000E9448038BE39FE10197F1F782E0809379
:1007B0000F0286E0DF91CF910C94480380620E9483
:1007C00048038BE496E40197F1F780910D02806273
:1007D0000E94480383E592E00197F1F780910D02B2
:1007E00080620E944803D0CF90911102891710F0C7
:1007F0008FEF890FE82FF0E0E250FE4F8489806888
:100800000C94480341E00E94F50281E090E00895D5
:100810001F920F920FB60F9211242F933F934F9375
:100820005F936F937F938F939F93AF93BF93EF9358
:10083000FF9381E691E00E940A01FF91EF91BF9141
:10084000AF919F918F917F916F915F914F913F9168
:100850002F910F900FBE0F901F9018951F920F921F
:100860000FB60F9211242F938F939F93EF93FF93C3
:10087000E0917101F09172018081E0917701F09136
:10088000780182FD1BC0908180917A018F5F8F7308
:1008900020917B01821741F0E0917A01F0E0EF595D
:1008A000FE4F958F80937A01FF91EF919F918F91E9
:1008B0002F910F900FBE0F901F9018958081F4CF4D
:1008C0001F920F920FB60F9211242F933F938F9385
:1008D0009F93AF93BF938091570190915801A0913E
:1008E0005901B0915A013091560123E0230F2D3761
:1008F00058F50196A11DB11D209356018093570113
:1009000090935801A0935901B0935A0180915B01D3
:1009100090915C01A0915D01B0915E010196A11DD5
:10092000B11D80935B0190935C01A0935D01B09336
:100930005E01BF91AF919F918F913F912F910F9049
:100940000FBE0F901F90189526E8230F0296A11D49
:10095000B11DD2CFE1E6F1E01382128288EE93E07E
:10096000A0E0B0E084839583A683B78384E091E020
:100970009183808385EC90E09587848784EC90E078
:100980009787868780EC90E0918B808B81EC90E05C
:10099000938B828B82EC90E0958B848B86EC90E03D
:1009A000978B868B118E128E138E148EEEEFF1E0E4
:1009B0001382128286E191E09183808382E08483B6
:1009C0008FEF858383E0868384E0878385E080875B
:1009D00086E0818787E082871386148615861686CF
:1009E000178681E00C944E03789484B5826084BDB0
:1009F00084B5816084BD85B5826085BD85B5816023
:100A000085BD80916E00816080936E0010928100A0
:100A1000809181008260809381008091810081605B
:100A2000809381008091800081608093800080911C
:100A3000B10084608093B1008091B00081608093A8
:100A4000B00080917A00846080937A0080917A006F
:100A5000826080937A0080917A00816080937A002E
:100A600080917A00806880937A001092C100E091B2
:100A70007101F091720182E08083E0916D01F0914B
:100A80006E011082E0916F01F09170018FEC808314
:100A900010927901E0917501F091760186E08083F2
:100AA000E0917301F0917401808180618083E09115
:100AB0007301F0917401808188608083E0917301FB
:100AC000F0917401808180688083E0917301F091DE
:100AD000740180818F7D808360E08EE00E94190226
:100AE00061E08BE00E94190261E08AE00E94190235
:100AF00061E089E00E94190282E00E944E0380E0DA
:100B00000E94F4038EE191E00E94A50281E00E9420
:100B1000F40389E291E00E94A50260ED77E080E0B5
:100B200090E00E946F0281E00E9448038BE39FE106
:100B30000197F1F7D0E444244A9483E0582E612CC5
:100B4000712C99EBC92E90E0D92E20E0E22E20E006
:100B5000F22EAA24A394B12CD0937C0080917A0029
:100B6000806480937A0080917A0086FDFCCF80912A
:100B70007800A0917900BA2FA82F24E630E00E94D7
:100B8000C506A30192010E947506C22F932E022F63
:100B9000132F61E08BE00E9419020115110509F085
:100BA0005AC060E08BE00E94EB0180E00E94F403F9
:100BB00084E391E00E94A50281E491E00E94A502F5
:100BC0008FE00E94C201892B21F4B0926001A092B3
:100BD0005F0180E10E94C201892B21F41092600123
:100BE00010925F0181E00E94F40380915F01909177
:100BF0006001892B61F484E491E00E94A50260E029
:100C00008AE00E94EB0161E089E00E94EB018091A3
:100C10005F0190916001019761F48DE491E00E9481
:100C2000A50261E08AE00E94EB0160E089E00E9499
:100C3000EB0162E370E080E090E00E946F02E1145B
:100C4000F10409F489CF0E94F600882309F484CFC7
:100C50000E94000081CF0F3F110511F461E0A2CF87
:100C6000F6018491833029F140F48130C1F0823063
:100C7000D9F00038110594F794CF873031F18830DE
:100C800061F18430B1F780918000806280938000B0
:100C90008C2F992D90938B0080938A0086CF84B5FA
:100CA000806884BDC7BD81CF84B5806284BDC8BD66
:100CB0007CCF809180008068809380008C2F992D5C
:100CC000909389008093880070CF8091B0008068F5
:100CD0008093B000C093B30068CF8091B000806271
:100CE0008093B000C093B40060CF052E97FB1EF434
:100CF00000940E948C0657FD07D00E94940607FCC2
:100D000003D04EF40C948C06509540953095219567
:100D10003F4F4F4F5F4F0895909580957095619527
:100D20007F4F8F4F9F4F0895A1E21A2EAA1BBB1B26
:100D3000FD010DC0AA1FBB1FEE1FFF1FA217B307A7
:100D4000E407F50720F0A21BB30BE40BF50B661FBD
:100D5000771F881F991F1A9469F760957095809581
:100D600090959B01AC01BD01CF010895A29FB001F8
:100D7000B39FC001A39F700D811D1124911DB29FCF
:100D8000700D811D1124911D08950E94B606B7FFB4
:100D90000895821B930B0895EE0FFF1F0590F491A9
:080DA000E02D0994F894FFCF47
:100DA800000000002C018C00B9007901EA00C8009D
:100DB800DC000000000002048C00A202A1025765BA
:100DC8006C636F6D6520746F004166746572776F30
:100DD800726B730044757479204379636C653A20AB
:100DE8000025200020204B69726920200020204B1C
:060DF800616E616E200037
:00000001FF
