:100000000C9462000C948A000C948A000C948A0070
:100010000C948A000C948A000C948A000C948A0038
:100020000C948A000C948A000C948A000C948A0028
:100030000C948A000C948A000C948A000C948A0018
:100040000C94A0020C948A000C946E020C9448024A
:100050000C948A000C948A000C948A000C948A00F8
:100060000C948A000C948A000000000024002700F1
:100070002A0000000000250028002B0000000008D6
:10008000000201000003040700000000000000005F
:1000900000000000230026002900040404040404D6
:1000A0000404020202020202030303030303010227
:1000B00004081020408001020408102001020408F6
:1000C0001020960411241FBECFEFD8E0DEBFCDBFB5
:1000D00011E0A0E0B1E0E8E1FAE002C005900D9285
:1000E000A232B107D9F721E0A2E2B1E001C01D922E
:1000F000AC3CB207E1F710E0C2E6D0E004C02197C3
:10010000FE010E940405C136D107C9F70E942F03E2
:100110000C940A050C940000AF92BF92CF92DF922C
:10012000EF92FF920F931F93CF93DF936C017B01AC
:100130008B01040F151FEB015E01AE18BF08C0173D
:10014000D10759F06991D601ED91FC910190F081B0
:10015000E02DC6010995892B79F7C501DF91CF9173
:100160001F910F91FF90EF90DF90CF90BF90AF90D5
:100170000895FC01538D448D252F30E0842F90E0AD
:10018000821B930B541710F0CF9608950197089592
:10019000FC01918D828D981761F0A28DAE0FBF2F5B
:1001A000B11D5D968C91928D9F5F9F73928F90E0B1
:1001B00008958FEF9FEF0895FC01918D828D981720
:1001C00031F0828DE80FF11D858D90E008958FEF5D
:1001D0009FEF0895FC01918D228D892F90E0805C26
:1001E0009F4F821B91098F73992708958FE291E0A9
:1001F0000E94EA0021E0892B09F420E0822F089573
:1002000080E090E0892B29F00E94F60081110C9487
:1002100000000895FC01A48DA80FB92FB11DA35AA9
:10022000BF4F2C91848D90E001968F739927848F16
:10023000A689B7892C93A089B1898C918370806439
:100240008C93938D848D981306C00288F389E02DDA
:1002500080818F7D80830895EF92FF920F931F938B
:10026000CF93DF93EC0181E0888F9B8D8C8D981369
:100270001AC0E889F989808185FF15C09FB7F89475
:10028000EE89FF896083E889F989808183708064C1
:1002900080839FBF81E090E0DF91CF911F910F910C
:1002A000FF90EF900895F62E0B8D10E00F5F1F4F1B
:1002B0000F731127E02E8C8D8E110CC00FB607FC2A
:1002C000FACFE889F989808185FFF5CFCE010E94B8
:1002D0000A01F1CFEB8DEC0FFD2FF11DE35AFF4F1B
:1002E000F0829FB7F8940B8FEA89FB898081806246
:1002F000CFCFCF93DF93EC01888D8823B9F0AA8903
:10030000BB89E889F9898C9185FD03C0808186FDD0
:100310000DC00FB607FCF7CF8C9185FFF2CF80811F
:1003200085FFEDCFCE010E940A01E9CFDF91CF9189
:10033000089590E0FC01E458FF4F2491FC01E25540
:10034000FF4F3491FC01E656FF4FE491EE23C9F0D4
:10035000222339F0233001F1A8F4213019F12230A1
:1003600029F1F0E0EE0FFF1FEE58FF4FA591B49179
:100370008FB7F894EC91611126C030953E233C93E1
:100380008FBF08952730A9F02830C9F0243049F7ED
:10039000809180008F7D03C0809180008F77809353
:1003A0008000DFCF84B58F7784BDDBCF84B58F7DB0
:1003B000FBCF8091B0008F778093B000D2CF809137
:1003C000B0008F7DF9CF3E2BDACFCF93DF9390E053
:1003D000FC01E255FF4F249186569F4FFC0184910A
:1003E0008823D1F090E0880F991FFC01E859FF4F56
:1003F000A591B491FC01EE58FF4FC591D4916111C4
:100400000EC09FB7F8948C91E22FE0958E238C93C9
:100410002881E223E8839FBFDF91CF9108958FB7B2
:10042000F894EC91E22BEC938FBFF6CF3FB7F894A2
:100430008091270190912801A0912901B0912A0172
:1004400026B5A89B05C02F3F19F00196A11DB11D2F
:100450003FBFBA2FA92F982F8827BC01CD01620F6B
:10046000711D811D911D42E0660F771F881F991F26
:100470004A95D1F70895FC0101900020E9F73197E2
:10048000AF01481B590BBC018FE291E00C948C002A
:100490001F920F920FB60F9211242F933F934F93F9
:1004A0005F936F937F938F939F93AF93BF93EF93DC
:1004B000FF938FE291E00E940A01FF91EF91BF91BB
:1004C000AF919F918F917F916F915F914F913F91EC
:1004D0002F910F900FBE0F901F9018951F920F92A3
:1004E0000FB60F9211242F938F939F93EF93FF9347
:1004F000E0913F01F09140018081E0914501F09150
:10050000460182FD1BC09081809148018F5F8F73EF
:1005100020914901821741F0E0914801F0E0E15D4E
:10052000FE4F958F80934801FF91EF919F918F919E
:100530002F910F900FBE0F901F9018958081F4CFD0
:100540001F920F920FB60F9211242F933F938F9308
:100550009F93AF93BF938091230190912401A09129
:100560002501B09126013091220123E0230F2D3780
:1005700058F50196A11DB11D2093220180932301FE
:1005800090932401A0932501B09326018091270127
:1005900090912801A0912901B0912A010196A11DF5
:1005A000B11D8093270190932801A0932901B09356
:1005B0002A01BF91AF919F918F913F912F910F9001
:1005C0000FBE0F901F90189526E8230F0296A11DCD
:1005D000B11DD2CFCF92DF92EF92FF920F931F9374
:1005E000E82FF92F05C0015011092109310961F1E6
:1005F000908196239417B9F305C001501109210980
:10060000310911F1908196239413F7CFC12CD12C8D
:10061000E12CF12C0AC08FEFC81AD80AE80AF80AB0
:100620000C151D052E053F0579F080818623841762
:1006300091F36C2D7D2D8E2D9F2D1F910F91FF908D
:10064000EF90DF90CF90089560E070E080E090E060
:100650001F910F91FF90EF90DF90CF900895CF936F
:10066000DF93CDB7DEB7A1970FB6F894DEBF0FBE0C
:10067000CDBF789484B5826084BD84B5816084BD2B
:1006800085B5826085BD85B5816085BD80916E0030
:10069000816080936E001092810080918100826061
:1006A000809381008091810081608093810080919E
:1006B00080008160809380008091B100846080938D
:1006C000B1008091B00081608093B00080917A0089
:1006D000846080937A0080917A00826080937A00AF
:1006E00080917A00816080937A0080917A0080689E
:1006F00080937A001092C10061E087E00E94E501DA
:1007000060E086E00E94E50161E08DE00E94E50185
:10071000E0913F01F091400182E08083E0913B0154
:10072000F0913C011082E0913D01F0913E018FEC8F
:10073000808310924701E0914301F091440186E0EB
:100740008083E0914101F09142018081806180834A
:10075000E0914101F0914201808188608083E091C5
:100760004101F0914201808180688083E0914101E4
:10077000F091420180818F7D80832AE0422E512CAE
:10078000612C712C30E0232E30E0332E60E087E0C6
:100790000E94990183E090E00197F1F761E087E022
:1007A0000E94990183E290E00197F1F760E087E011
:1007B0000E949901E4EBF0E06491E0EAF0E08491BA
:1007C000E82FF0E0EE0FFF1FE057FF4F8591949167
:1007D00000E412E42FE030E0462F0E94EA026115A7
:1007E00071058105910529F06F5F7F4F8F4F9F4FF6
:1007F0009F702CE531E040E050E00E94E50420933A
:100800002B0130932C0140932D0150932E01215048
:1008100031094109510961E02D3131054105510589
:1008200008F060E08DE00E94990182E191E00E9471
:100830003B02C0902B01D0902C01E0902D01F09054
:100840002E01F7FE5DC06DE28FE291E00E942C0167
:1008500022273327A9012C193D094E095F0919A246
:10086000CE0181967C01CA01B901A30192010E94C7
:10087000C304605DF70162937F01211531054105D5
:10088000510589F7E114F10419F0C7010E943B02F8
:1008900089E191E00E943B028EE191E00E943B02DF
:1008A0000E9416024B015C0184E6C82ED12CE12C7B
:1008B000F12C0E941602681979098A099B09683E81
:1008C000734081059105A8F3F1E0CF1AD108E10842
:1008D000F10828EE820E23E0921EA11CB11CC11467
:1008E000D104E104F10429F72114310409F44ECFB5
:1008F0000E94F600882309F449CF0E94000046CFE9
:10090000A701960119A2CE0181967C01CA01B90105
:10091000A30192010E94C304605DF70162937F010D
:10092000211531054105510589F7ACCFEFE2F1E022
:100930001382128288EE93E0A0E0B0E08483958376
:10094000A683B78384E091E09183808385EC90E077
:100950009587848784EC90E09787868780EC90E089
:10096000918B808B81EC90E0938B828B82EC90E07A
:10097000958B848B86EC90E0978B868B118E128EF4
:10098000138E148E0895A1E21A2EAA1BBB1BFD0123
:100990000DC0AA1FBB1FEE1FFF1FA217B307E4075E
:1009A000F50720F0A21BB30BE40BF50B661F771FB6
:1009B000881F991F1A9469F7609570958095909596
:1009C0009B01AC01BD01CF010895052E97FB1EF4DC
:1009D00000940E94FC0457FD07D00E94C30407FC4A
:1009E00003D04EF40C94FC0450954095309521951D
:1009F0003F4F4F4F5F4F089590958095709561954B
:100A00007F4F8F4F9F4F0895EE0FFF1F0590F4917A
:080A1000E02D0994F894FFCFDA
:100A1800000000002C018C00B9007901EA00C80030
:100A2800DC006A6172616B200020636D20000D0A92
:020A38000000BC
:00000001FF
